:100000000078001045E4010057CE0000CFE7000063
:1000100000000000000000000000000000000000E0
:10002000000000000000000000000000A3500100DC
:100030000000000000000000CF5001005524010026
:100040005F24010061240100B7240100E7240100BE
:1000500029280100C5240100EF5001004D260100B0
:1000600091260100D126010007250100FF2401008F
:1000700023510100DF62010099270100AD27010033
:100080001127010059270100438E0100C5270100F7
:100090002F25010033BA0100D7240100C724010035
:1000A000D9270100D524010023BD010061250100ED
:1000B0003B2501004725010000000000DF2401006E
:1000C00010B59E4CA5446846A24909880180A24902
:1000D000098841806A460821A44804F0B0FDA44A7A
:1000E000002010700121A34804F041FE8124E400A7
:1000F0000022210002A804F093FF01206946088134
:10010000022102A805F05EF8039002AA2100B320A4
:10011000000104F02CFE8220C000854410BD80B593
:10012000FFF7CEFF05F007FC07F08DF8012008F07F
:1001300022FE032009F0C1F8062009F0BEF80520D0
:1001400009F0BBF80F2009F0B8F8132009F049F8BE
:1001500001BD10B50024884821000170874A118034
:10016000A24A11800A464021001D04F059FF0D20CB
:1001700009F037F80E2009F034F80A2009F031F8B8
:100180000B2009F02EF80C2009F02BF80EE00620C9
:100190009749984A62438918974A8854402097495A
:1001A0002C2262438918AC4A8854641C022CEEDB72
:1001B00000F0C6F810BD10B500248D4A8D4B00E04C
:1001C000641CE4B2210002290CDA59435118884218
:1001D000F6D1200009F0A6FF200004F035FC200035
:1001E0000AF036F810BDF0B587B000252C46624EF7
:1001F00008E0032C02D10B2008F0F3FF5525002066
:10020000B860641C042C5EDA20013718F8680028F6
:100210000ED09249884201D30120F860F868401E50
:10022000F86005D1032C03D155250E2008F0D9FF25
:1002300078680028E5D0002C05D17068874988428D
:1002400001D301207060002C2DD078683C210AF089
:1002500096F8002927D10A2008F0E0FF012804D0F1
:100260000B2008F0DBFF01281DD1032C04D101A9CC
:1002700014200AF0DBF807E0022C04D101A90520C4
:100280000AF0D4F800E0A648132801D301207860D2
:10029000042201A9091D684604F0EAFF009800281D
:1002A00001D1012078607868401E7860A9D1002CC7
:1002B00003D10C2008F095FFA0E7022C99D10A2069
:1002C00008F08FFF9AE7552D1DD10A2008F0A6FFF0
:1002D000002818D10B2008F0A1FF002813D10C2012
:1002E00008F09CFF00280ED10D2008F097FF002891
:1002F00009D10E2008F092FF002804D10AF016FC64
:1003000000200AF057FE1D480188002901D0491E2F
:1003100001803648018800290DD0491E018089B22C
:10032000974A914201DB002101800088002802D118
:10033000122008F056FF07B0F0BD0000F0FBFFFFF1
:1003400010B5904C00220221200004F069FE00202C
:10035000607010BD20F2030022F2030089490A7880
:10036000824201D100204870704700000A0200005C
:100370008C5B0010280B0000E4570010145A00108A
:10038000012802D1FA20C000704780208000704709
:1003900038B50500FFF7F4FF04000A2008F03EFF1F
:1003A000012809D00B2008F039FF012804D00C20C7
:1003B00008F034FF012817D110482C214D43401973
:1003C0007149405C022802D17048006C03E00128AA
:1003D0000AD16E48006B4739884201D3080032BD0C
:1003E000642802D2200032BD200032BD165A00100F
:1003F000081100102A08000016080000F83C001040
:1004000010B5634C0020205E002823D05F4801789F
:10041000002902D0491E017010BD0421200004F003
:10042000D1FE6168814215D10020205EAD4988422D
:1004300002D1FFF774FE06E04900884203D1FFF7BE
:100440006EFE0CF054F9002020800421200004F0FE
:10045000B9FE606010BD000031080000813A09005B
:10046000F0B585B006000F00150000243C2109F00E
:1004700086FF029030003C2109F081FF0391002F9C
:1004800001D1701949E0042F08DA9748B9004058A3
:1004900068430101081A800030183EE023D1694604
:1004A00002980CF00DFB012836D16C46A078461955
:1004B0000D2E15DB761E0C2527883000290009F04B
:1004C0005BFF381820803000290009F055FF491CD7
:1004D000A17020888549884217DB481E208014E0DF
:1004E0004019A07011E0052F16D1694602980CF052
:1004F000E7FA012810D16C46208840192080208816
:100500007A49884201DB481E208003986946887139
:1005100068460CF0A9FB0400200005B0F0BD000007
:10052000FFFF000070B582B00D0000240600022E0F
:1005300023DAA2482C21714340181349405C00285B
:100540001AD10D2008F06AFE002815D16848B100C4
:10055000891989004018C078002801D1012076BD92
:1005600004222900684604F083FE0098614988420D
:1005700002D06149884200D10124200076BD0000EC
:10058000090700000C5A001017080000E45700107B
:10059000F059001001207047F0B583B00B00110036
:1005A0008A780192002B01D105240EE0012B01D1A4
:1005B00006240AE0022B01D1072406E07F4A2C23FF
:1005C0004343D2184D4BD258147807004848BA001C
:1005D000D21992008018C5780222684604F048FEBD
:1005E000684600880600360A022008F097FE0128B7
:1005F00076D0052C04D037D3072C58D050D333E015
:10060000022008F08BFE00286AD10E2008F086FE3A
:10061000012865D168460088000B61D068460088D3
:100620008F49401803285BD3684600888D4988426B
:1006300056D0F02E54D0F12E52D0F22E50D0FF2EA4
:100640004ED05E482C214F43C0198749405C0100C1
:1006500002290BD10B2008F0E1FD00281DD10E204E
:1006600008F0DCFD002818D10020FEBD012905D1CD
:100670000A2008F0D3FD00280FD1F5E7002805D1A6
:100680000D2008F0CBFD002807D1EDE70329EBD1C1
:100690000D2008F0C3FD0028E6D0032DE4DB1FE0A9
:1006A00068460088F1210902884217D114E06846A3
:1006B00000888021C901884212D0AB4988420FD0FE
:1006C000203E102E0CD3F1210902884206D1019858
:1006D0000B2805D00C2803D0042D01DA062DC3D138
:1006E0000120FEBD1111000044E2010034080000A9
:1006F00074560010000B00F1000C00F11C08000003
:10070000F0B583B004000E001700112008F086FD3C
:1007100001282CD039002000FFF704FF00284AD020
:1007200002223900684604F0A3FDB8783500022D96
:1007300016D122492C2262438918A34A895C0129D7
:100740000ED0694609888022D20191420FD09F4A7B
:1007500091420CD0A022D201914201D1032806D0AF
:10076000022D06D168460088A449884201D10120A3
:10077000FEBD012008F0D2FD01280AD1002E08D0CC
:100780000E482C21614340188F49401800790028F9
:1007900011D10A482C21614340188B49401801901F
:1007A0000078002801D0002E05D131002000FFF78D
:1007B000F1FE002804D10020FEBD00BFF83C00106F
:1007C000019800790100012903D0022901D00329F1
:1007D00005D13A0031002000FFF7DEFEFEBD002803
:1007E0003BD1012C01D10120FEBD00208A49A2008D
:1007F000121992008918C978002901D003292AD139
:10080000022D1DD1694609887C4A914216D0D73AFB
:10081000914213D0814A914210D0534A91420DD057
:10082000521C91420AD0F1221202914206D07C4A17
:10083000914203D0F822120291420FD10120FEBD55
:10084000012D06D169460988764A914206D10120D8
:10085000FEBD0120FEBD0120FEBD0020FEBD00004A
:1008600000C0FFFF1141000017080000F0B585B07F
:100870000400022C06DA03F07FFF0600802000024D
:10088000864201D100201CE067482C2161434018BA
:100890006649471838688519B888411EB9805E488E
:1008A000A20012199200841889B2B14203DA002022
:1008B0006070012005E02978012904D000206070D3
:1008C000012005B0F0BD0A222900491C28300CF097
:1008D00081FAB888801B0A2835DBBE8055206070FD
:1008E00007222900491C01A80CF074FA022101A872
:1008F00004F0ABFC032008F011FD012830D01820D3
:1009000008F03CFE01282BD001A80CF00CFA0028BE
:1009100019D02F7A062F16DA0222093529006846E7
:1009200004F0A6FC03A9F7200CF03EF803A80CF095
:100930009BF905000026F643B54211D001A80CF042
:1009400093F9B04203D1552060700120B9E7A84265
:1009500006D269460A883900FFF782FDA842AFD364
:10096000222060700120ACE7044800001CB50400A0
:10097000042008F0D3FC012804D1112008F04EFC1B
:1009800000281AD030220821684604F049FB0020D4
:10099000010001E0491CC9B2082910DA625C6B460B
:1009A0005B5C9A42F6D0B7480178491C0170C9B225
:1009B000032902DB042008F04FFC002016BDB149DA
:1009C0000870012016BD00001308000007F20000A7
:1009D000AD4A8218092A02D3AC4A904209D10629AD
:1009E00005D0072903D0082901D0092903D1012006
:1009F00070470229FBD0002070470000EB20000068
:100A0000054982001018800008188189C289914226
:100A100000D2C181704700007456001036300000CB
:100A2000EF400000EE400000F83C00101C08000001
:100A300070B504000D000026002D22D0002C01D03E
:100A4000012C0DD132460821280004F0D9FA0320E8
:100A5000E870FF2028716871A871E87108350826D0
:100A6000002C01D0022C0CD100221021280004F00F
:100A7000C7FA232068737F20A873FF20E87310361D
:100A8000F6B2300070BD38B504000D00002C02D164
:100A9000032A00D088E0002A20D1022268460CF008
:100AA00099F9684600887F2849DBFF284DDB8220C2
:100AB0002070687860702878A0700222290068464B
:100AC0000CF088F968460088B949884204DB0022A6
:100AD0000221280004F094FA032032BD012A24D117
:100AE00020780100822914D1A0782870607868707D
:100AF0000222290068460CF06DF968460088AC496E
:100B0000884204DB00220221280004F079FA032045
:100B100032BD0022812904D1607828706A700220D9
:100B200032BD28706A70012032BD022A2AD1022209
:100B3000684604F09DFB684600887F2803DA287821
:100B40002070012032BDFF2805DA8120207028782E
:100B50006070022032BD8220207068786070287832
:100B6000A0700222290068460CF034F9684600881B
:100B70008F49884204DB00220221280004F040FA59
:100B8000032032BD032A0FD1022268460CF022F95D
:100B9000684600887F2801DA012032BDFF2801DA8B
:100BA000022032BD032032BD002032BD30B4002906
:100BB00001D0552914D17F4B8400201880001818CB
:100BC000C3899C18058AA5421ADB794DAC4217DA15
:100BD0009A18C281552900D18281002030BC70470B
:100BE0007729FAD173498300181880000818C18941
:100BF0008B186F4CA34203DA8918C1818181ECE71D
:100C00000120EBE770B50C0011001D00022801DB8C
:100C1000032070BD002C01D0552C1AD1654A8300E9
:100C2000181880001618F0894019328A824227DB92
:100C30005F4A904224DA2A00B068F389C0180CF0A9
:100C4000C9F8F0894019F081552C00D1B0810020FD
:100C500070BD772CFBD1574A8300181880001618F6
:100C6000F0894019524A90420ADA2A00B068F389A2
:100C7000C0180CF0AFF8F0894019F081B081E6E7B8
:100C8000012070BD8C5B001000D0FFFF0B30000016
:100C900010B4022801DB03201AE0002901D05529F5
:100CA00018D1444B8400201880001818C3895B1C9D
:100CB000048A9C4222DB3E4CA3421FDA8368C4892B
:100CC0001A55C289521CC281552900D18281002047
:100CD00010BC70477729FAD1364983001818800074
:100CE0000818C189491C324B994207DA8168C389C7
:100CF000CA54C189491CC1818181E8E70120E7E725
:100D000038B504000D00022C01DB032032BD0022A7
:100D10001146FFF7BDFF002804D12A00552120000D
:100D2000FFF7B6FF32BDF0B583B006000C0011002E
:100D30003700022F3BDA022268460CF04BF8032200
:100D400069460020FFF79FFE05001A48B900C9193F
:100D500089004718022D24DBB889A04202D2F88905
:100D6000A04204D36846B989091B818002E00020B3
:100D700069468880B86869468A8801196319C0186D
:100D8000401E0CF055F800226946B8680019401E54
:100D9000FFF779FE6A1E92B277213000FFF706FF57
:100DA000F7BD68460088B9680919491E0870F7BD83
:100DB000D107000074560010F1B584B00C00170084
:100DC0001D00042228000CF005F8012201A92000D2
:100DD000001DFFF758FE060068468288A119091D0C
:100DE0002800001D0BF0F6FF012269463800FFF7CE
:100DF0004AFE0390684680882818039979186A4645
:100E0000127C552A6A46128809D1521F6B461A80F5
:100E10006A461288491D001D0BF0DCFF02E0001D30
:100E20000BF0D8FF012202A96846808830182018EC
:100E3000001DFFF728FE07006846808869460A897A
:100E40003118C9196118091D6B461B88C01828186C
:100E5000001D0BF0BFFF68468088301803994018CA
:100E6000694609884018C019694609894018001D5B
:100E700080B205B0F0BDF1B582B00F0016001D00C4
:100E8000042228000BF0A6FF012269463800001D4D
:100E9000FFF7F9FD0400684602883919091D28008A
:100EA000001D0BF097FF6846007A552817D10122E4
:100EB00001A93000FFF7E7FD070068468288F119B5
:100EC00000882818001D0BF085FF68460088201850
:100ED000C019694689884018001D80B2FEBDAA2845
:100EE0006846008820D12818001D09F04BFC002816
:100EF00002D180200002FEBD012201A93000FFF7CF
:100F0000C2FD070068468288F119008828180C3055
:100F10000BF060FF684600882018C0196946898870
:100F200040180C3080B2FEBD2018001D80B2FEBDFE
:100F3000801E02210170012141707047F0B585B01B
:100F400007008B4C2C2078432018039089494518C2
:100F5000012269462868801CFFF795FD69460988CB
:100F6000801C08186946088029684E78002E02D037
:100F7000012E00D0CBE068460088095C002901D032
:100F800003292AD103997C4A89180A78032A24D094
:100F900009790A00012A06D10A2008F03FF9012840
:100FA0001BD00120B4E0022A06D10B2008F036F94C
:100FB000012812D00120ABE000290CD12968085C7F
:100FC000002801D10120A3E00D2008F027F9012815
:100FD00003D001209CE001209AE02A68684600883E
:100FE00010180178002927D12300921C401C010011
:100FF0000020FFF7E1FE200009F064FA012819D172
:1010000001AF60783870207878703A882100891CA8
:1010100028680BF0DFFE32222100891C5748201877
:101020000BF0D8FE3888A880012E01D106206FE091
:1010300004206DE001206BE0012928D1012202A9E2
:10104000401CFFF720FD0100684600891B2801DBDA
:1010500001205DE04A486A461289027002782B68D6
:101060006C46248861185918491C401C0BF0B2FECC
:10107000012201A92868801CFFF705FD29680818CE
:10108000801C286068468088A880032040E00229F0
:1010900001D101203CE0032937D1CB49BB00DB194A
:1010A0009B00C9180979002907D12300921C401C14
:1010B0000100AA20FFF7DFFE06E02300921C401C7F
:1010C00001005520FFF7D7FE200009F0FBF90128A9
:1010D00019D1012E15D101AF607838702078787061
:1010E0003A882100891C28680BF074FE3222210006
:1010F000891C224820180BF06DFE3888A880052036
:1011000006E0012004E0012002E0012000E00120CF
:1011100005B0F0BD10B50200AB4993009B189B00D1
:10112000C91803230B71022A01DB012010BD104BEB
:101130002C2462439A18C94BD35C1C00012C0AD0A2
:10114000022C02D102230B7107E05C1EA441E44390
:10115000E40F0C7101E001230B7106495158097825
:10116000102901D0002010BDFFF7E8FE10BD0000DF
:10117000F83C00101C08000013080000680800007C
:1011800004590010FEB500210191022801DB084638
:10119000FEBD8D4E8100081880003418E078009064
:1011A000012800D10CE1002800D109E1062804D073
:1011B000052802D0042800D08BE0A94DA289A1689F
:1011C00028000BF007FE3222A168343630000BF005
:1011D00001FE2B00A2890099C9B2207909F0A0F97B
:1011E0000190012800D0EBE002AE687830702878DA
:1011F00070700098062802D00098042844D13088E6
:10120000001F3080032202A90020FFF73CFC801C55
:10121000C0B2070032882900891CA068C0190BF0F1
:10122000D9FDA0683188C91901224254A0683188CB
:10123000C919401800214170A0683188C9194018A7
:101240000421817030880A462918891CA368C019B6
:101250001818C01C0BF0BEFD9020A1680870A06893
:101260000099062902D10121417001E0002141705D
:10127000002202A9A068801CFFF705FC3088C01975
:10128000C01DA081E0819BE0032202A90020FFF79E
:10129000FAFB0700BF1CFFB23288AD1C2900A06812
:1012A000C0190BF097FDA0683188C919002242547B
:1012B0009020A16808700120A168487002A9A06868
:1012C000801CFFF7E0FB3088C019401CA081E08142
:1012D00076E0032874D102AE002030802079002807
:1012E00004D15F4809F096FA0820308030889C4F7E
:1012F0003A78A189411889189A4B994215DA012147
:101300000191574D3900491C28180BF063FD3088B6
:10131000397840183080A289A168308828180BF0ED
:1013200059FD3088A18940183080019880B2012889
:1013300046D14B4D2B0032880099C9B2207909F073
:10134000EFF8019001283BD1032221000C3100204D
:10135000FFF799FB0700BF1CFFB2A168A289C8195B
:101360000BF066FDA068A189C91901224254A0684A
:10137000A189C919401800214170A068A189C91923
:101380004018042181700A46AD1C2900A068A38979
:10139000DB19C018C01C0BF01DFD9020A16808705F
:1013A0000020A1684870024621000C31A068801C12
:1013B000FFF769FBA089FF1DC019A081A089E0810A
:1013C0000198C0B2FEBD0000745600100100022951
:1013D00000DB704738B5644A8B00591889005418EF
:1013E000E17800291ED05525012907D0217903294C
:1013F00004DAFFF7C7FE012800D10025552D11D1D1
:10140000012020709020A16808700220A168487017
:101410001C20A16888700020A168C8700420010009
:10142000A181E08131BD38B50400022C15DAFEF748
:10143000AFFF4D49A2001219920089188A89084B02
:101440002C256C431B19494C1B5DD2180B32904262
:1014500003D20878042202430A7031BD1708000045
:10146000F83C0010F0B585B006000F001400002015
:1014700001003170B64DA8702078002801D10120FC
:101480006CE001280BD16078082801D0084665E09F
:101490000120A870A41C2000FFF768FA5EE0022873
:1014A0005BD10A2007F0BAFE002815D10B2007F007
:1014B000B5FE002810D10C2007F0B0FE00280BD19B
:1014C0000D2007F0ABFE002806D10E2007F0A6FE87
:1014D000002801D109F02AFB2348B900C919890065
:1014E000401801900079012830D10220307001228B
:1014F00069462000401CFFF7C6FA0600012202A937
:101500006846008830182018401CFFF7BCFA69466E
:101510000873D94F68460288A119491C38000BF09E
:1015200059FC6846008869460A8931186B461B7B5E
:10153000C9186118491C38180BF04CFC3900019887
:10154000007908F0A1FF0221A97007E0022802D16A
:1015500003203070CBE7002000E0084605B0F0BD66
:1015600004590010D107000074560010150800003F
:10157000F0B591B007000C0015000A95022F00DBB2
:1015800077E1BE48B900C9198900401804900120CC
:1015900004990870C6030222210028000BF01AFCEF
:1015A000AD1C22002732390002A8FFF75BFF0222A0
:1015B00021001E3105A803F05BFE3800FEF7E0FEB7
:1015C0006946898A814202D301006A46918269464E
:1015D000898A642901DA694688826846818A5C487A
:1015E0006A46127A12018018016104222100233117
:1015F00007A803F03DFEC048099001952420009003
:10160000002309AAFF2118460CF070F920352A00A2
:101610000F2100200AF0E4FE0890AD1C18222100E2
:10162000091D28000BF0D6FB183549486946097A90
:101630000901401800696946888103A8407828702C
:101640006846007B6870AD1CB00988810220287054
:101650006846007B68700120A870ED1CFA20C0006D
:101660008881072028706846007B6870AD1C2720A1
:10167000205C002806D104222100233128000BF031
:10168000A9FB0DE06846007A03280BA904D11420B9
:1016900008F0CCFE060003E0052008F0C7FE0600B7
:1016A00075482C214F43C01901909449401800906F
:1016B000007800280BD004222334210028000BF0EE
:1016C00089FBFF20287100206871AD1DC2E0204811
:1016D000807800280BD104222334210028000BF04D
:1016E00079FB0020010029716871AD1DB2E00898F6
:1016F000002803D00498407855281CD104222100EA
:10170000233128000BF066FB0020089900290DD139
:1017100027342178022904D1022129716871AD1D75
:1017200098E0012129716871AD1D93E0FF212971B5
:101730006871AD1D8EE08020000286420AD10798B4
:1017400003496A46127A12018918486016E000BF00
:10175000E457001004220BA906A803F089FD06989F
:101760000101081A800006900799884200D90800F4
:1017700063496A46127A1201891848606846007AFD
:10178000002806D000205E49486088600C2007F0E1
:1017900028FD6846007A002803D10C2007F004FDDC
:1017A00012E06846007A032809D10B2007F0FCFC00
:1017B0000E2007F016FD01205149C86304E00228FD
:1017C00002D10A2007F0F0FC0098C0784C4948701C
:1017D00008466946097A0901411848688860042268
:1017E0000831280003F044FD00200100297127344E
:1017F000217802292CD10120687102221E4903A8F8
:1018000003F036FD68468089001FFC2802D334208F
:101810006946888168468089001FA871ED1D684669
:101820008089021F374928000BF0D4FA6846808966
:101830002D182D1F042028706D1C02460E48694685
:1018400089894118891E28000BF0C4FA2D1D01E07A
:101850006871AD1D0A98281A049988810499C88175
:10186000012004990870019882210901405A0499C5
:10187000488211B0F0BD0000F83C00107456001012
:1018800070B504002600022E35DA57482C2171432A
:1018900040185649451802232A6800212000FFF706
:1018A000B1F9002255212000FFF7F2F95048B100AC
:1018B0008919890044182079012807D10A2007F0E6
:1018C00090FC0F4801214162816208E0022806D1A4
:1018D0000B2007F086FC0A480121416381630C203C
:1018E00007F07FFC064801214160816021700420DF
:1018F000A081A888608270BD430003001308000027
:10190000E4570010FA3C001038B505000C00200424
:101910000ED4002C0CD0012200212800FFF7B8F9CA
:10192000002810D1220055212800FFF73FF932BDD1
:10193000002C04D108212800FFF7E2F932BD042170
:101940002800FFF7DDF932BD70B584B005000E0048
:101950002C00022C01DB032043E004233200002191
:10196000FFF750F900283CD12148A100091989004E
:101970004418608A001D60826078552804D12021B7
:101980002800FFF7BDF92CE0320000212800FEF707
:10199000B7FE002804D10F212800FFF7B1F920E09D
:1019A000208AE189491C814202DA6C49884201DBC4
:1019B000002113E0A068E1894018401C0290208AB1
:1019C000E189401A401E80B201900020009033004F
:1019D000FF22012128000BF0E8FE01002800FFF79C
:1019E00093FF04B070BD0000F83C00101C0800001C
:1019F00074560010F0B585B00600022801DB032004
:101A000047E057492C2242438918564A89180191C8
:101A1000BC498200101880000F18012202A9019809
:101A200000687B8AC018FFF72EF8798A0818788238
:101A3000002568460580027A29463000FFF728F91C
:101A4000040026D16846F989818100E06D1C684652
:101A50000089ADB2854212D201980068798A411896
:101A60003000FFF771FF040009D168460088401C70
:101A700069460880788A019989888842E6D33000CF
:101A8000FEF7BEFF6A46684681893000FFF74BF9D2
:101A9000200005B0F0BDF4B504000D001F00802645
:101AA000360228889849411888225200914213D260
:101AB000E878022807D10BF09FFF022803D128887D
:101AC0009249884212D13B006846028829002000D2
:101AD00006F0C2FF060009E08D49884206D168463B
:101AE00002882900200004F0CDFE06003000F2BD7F
:101AF00088487047F8B50C0016001D00022825D153
:101B0000208881494118FF291FD8FFF7F1FF0700FE
:101B1000207F012802D080200002F2BD0422216A29
:101B200068460BF057F9002000E0401CC0B239684D
:101B300088420AD2C1007918009A8B689A42F4D17F
:101B400004220C31206A0BF045F900205521A170C8
:101B50002B0032002100FFF79EFFF2BDD1070000ED
:101B6000F83C00101C080000F1B582B00E00150012
:101B700064486946097A8A005118890040188168CA
:101B8000C08908180190012200216846007AFFF7F9
:101B90007FF8040000275C483018FF2858D8300030
:101BA000FFF7A6FF00903D0016E03A461146684652
:101BB000007AFFF76DF8040000D0A0E0042300983D
:101BC000E90042180C3239466846007AFFF71AF8E5
:101BD000040000D093E06D1CADB20098006885420F
:101BE000E3D3A14BFA22D2003946300005F032FD92
:101BF000010401D4042801DA3E0006E00100491086
:101C0000890F08180600B610F6B2332E00DB322614
:101C10003D0013E0002211466846007AFFF738F8CD
:101C200004006CD104239048B90042180021684692
:101C3000007AFEF7E7FF040061D16D1CADB22F0002
:101C4000B742E7DB0098006830180199087056E049
:101C50002F4886424FD13D0014E03A46114668466F
:101C6000007AFFF715F8040049D10423AE48A90013
:101C70004218121D39466846007AFEF7C3FF040079
:101C80003DD16D1CADB2022DE7D3774BFA22D200C5
:101C90003946300003F0F1FD010401D40A2801DACD
:101CA0003E0004E00A2108F067FB0600F6B2112EA0
:101CB00000DB10263D0016E0002211466846007A3F
:101CC000FEF7E6FF04001AD104236748B900C919DA
:101CD00049004218921C00216846007AFEF792FFE4
:101CE00004000CD16D1CADB22F00B742E4DBB61C72
:101CF0000198067003E00198077007202870200003
:101D0000FEBD00007456001000D0FFFF0B30000035
:101D10000250000068E20100FCB585B005000C002F
:101D200010460078002806D10C9A2800FFF71CFF07
:101D3000694608727AE0012269460598FEF7A3FE1B
:101D40000190684600883D2804DB07200C99087044
:101D500000206DE081000818019943189BB2059A94
:101D600000212800FEF74EFF694608726846007A97
:101D700000285BD16D482018FF2839D82000FFF7D4
:101D8000B7FE040000251EE07F1CFFB220688742DA
:101D90000CD2F800211803988A689042F4D10422EA
:101DA0000C310698AB00C0180BF014F8206887427D
:101DB00007D10422761C31000698AB00C0180BF046
:101DC00009F86D1CEDB26846008885422EDA059848
:101DD0000199AA005219891846183078002822D192
:101DE00004223100491C03A80AF0F4FF0027CDE7C4
:101DF000BB48844217D1002508E00422491C0698FC
:101E0000AB00C0180AF0E6FF6D1CEDB26846008812
:101E100085420BDA05980199AA00521989184118D0
:101E200008780028E9D007200C9908706846007AE5
:101E300007B0F0BD0B00022B08D0062B06DB09D142
:101E4000A849884202D0091D88420AD10020D070DA
:101E500001207047881FD070C0B2052801DA02281F
:101E6000F6DB002070470000F83C001038B5050094
:101E70000C0080200002044215D1002C13D0012256
:101E800000212800FEF704FF002823D101220021B1
:101E90002800FEF7FDFE00281CD122005521280055
:101EA000FEF784FE32BD002C01D1012032BD8442F8
:101EB0000CD1012200212800FEF7EAFE002809D1FA
:101EC000002255212800FEF7E3FE32BD0321280041
:101ED000FEF716FF32BD38B505000C0002222900BE
:101EE000491C684603F0C4F9684600887E49884268
:101EF00006D169791C2903D101202071012032BD4E
:101F00007A49884205D169791C2902D108202071BB
:101F1000F4E77749884205D168791C2802D110205E
:101F20002071EBE7002032BD5CE2010000D0FFFF32
:101F3000FCB5D1B006000D000020040001006A4687
:101F400011716946C88007A92800FFF7C4FF00285F
:101F500002D10720694608712800401D0BF0B2F934
:101F6000029080210902884201D10320ADE02818A7
:101F7000401D049068791C2829D107222900891D59
:101F800005A80AF027FF022105A803F05EF9002743
:101F9000FF4351A800885249884205A80ED10AF093
:101FA00035FE0400BC4203D108206946087111E0E7
:101FB00005A8807900280DD0641C0BE00AF054FEBF
:101FC0000400BC4206D108206946087102E00720DF
:101FD00069460871012203A90498FEF754FD694679
:101FE000487101A8009010AB049A51A801883000F4
:101FF000FFF792FE002868D13E48B1008919890098
:1020000047187878552803D12020694608712EE0BA
:102010002D1F2A0000213000FEF772FB002803D19B
:102020000F206946087122E052A8017851A8008863
:10203000FEF7CEFC002803D103206946087116E0A4
:1020400007A851A909880180867010A90F916946D7
:1020500089890177099407AA52A8017851A80088B4
:10206000FFF7E8FE002802D10320694608716846A0
:10207000007900282BD1388AF989891C814210DA2D
:102080001D4988420DDAB868F98943189B1C388AC3
:10209000401A821E92B207A90120FFF7FCFC694694
:1020A000C8806846C1883000FFF7E0FE00280CD1E8
:1020B000798A029A6B465B79D2186B469B899C00A1
:1020C000E318D21809328918798253B0F0BD6846F6
:1020D00001793000FEF714FE0028E9D0F5E7000092
:1020E0000250000007300000212000001E200000E8
:1020F0002020000074560010D1070000FDB5DAB0B2
:102100000D0000273800694608710FAE3076087060
:10211000079706970FA92800FFF7DDFE002802D1D8
:102120000720694608712800401D0BF0CBF802908B
:1021300080210902884215D02818401D0BF0C2F8F2
:1021400003908021090288420CD00298039940181C
:102150002C182000401D0BF0B5F8059080210902D5
:10216000884201D1032025E102980399401805997E
:10217000401880B22818401D09906079542809D170
:10218000A07969460870E07904A94870207A694608
:10219000087407E0002802D15520307602E00720BD
:1021A0006946087168791C2815D107222900891D04
:1021B0000DA80AF00FFE02210DA803F046F80DA8A5
:1021C0000AF052FD07900021C943884206D1082039
:1021D0006946087102E0072069460871687B1C287F
:1021E00015D1072229000E310BA80AF0F3FD0221B8
:1021F0000BA803F02AF80BA80AF036FD0690002180
:10220000C943884206D108206946087102E00720C8
:10221000694608715BA80088BE494018052819D294
:102220005BA80088BC49884214D0317E552911D062
:1022300069460978B94A904205D104290AD0032099
:102240006946087106E0B64A8018884202D0032029
:10225000694608716846008A002801D15520307609
:10226000012208A90998FEF70EFC6946487101A8E9
:10227000009018AB099A5BA801885AA80078FFF76C
:102280004BFD040000D09FE0A6485AA909788A00B7
:1022900051188900401800904078552803D120201B
:1022A000694608713AE02D1F2A0039465AA800787D
:1022B000FEF726FA002803D10F20694608712DE0A9
:1022C0005CA801785BA80088FEF782FB002803D198
:1022D00007206946087121E05BA8008830805AA871
:1022E0000078B07018A817906846008C3077307965
:1022F000801C3071119707981290069813906846C9
:10230000008AB0820FAA5CA801785BA80088FFF75A
:1023100091FD002802D107206946087168460079BE
:10232000002849D10098008A0099C989891C8142F6
:1023300014DAC749884211DA009880680099C9897F
:1023400043189B1C0098008A0099C989401A821E74
:1023500092B20FA90120FFF79EFB07000098C589E4
:10236000AD1C39005AA80078FFF780FD04002BD17E
:10237000F08A6946088580200002874206DA0AAAA8
:10238000290089B25AA80078FEF7CDFC0098408A4F
:102390000299039A8918059A89186A465279891808
:1023A0006A46128C93009A188918093140180099CE
:1023B000488220005DB0F0BD684601795AA80078D7
:1023C000FEF79EFC0400E1D02000F3E7FCB5CDB0A1
:1023D00005000E000020694608713400A41C7078C6
:1023E000C880012202A92000FEF74DFB6946487112
:1023F00001A800900CAB22004DA801882800FFF72F
:102400008BFC040000D082E04648A90049198900ED
:1024100047187878552806D120212800FEF770FC4F
:10242000040074D11CE0361F320000212800FEF7A2
:1024300067F9002806D10F212800FEF761FC04008F
:1024400065D10DE04EA801784DA80088FEF7C0FACE
:10245000002809D107212800FEF752FC040056D1BC
:102460007720694608711AE003A84DA90988018000
:1024700085700CA90B9169460989017704210171C6
:102480006846C088059003AA4EA801784DA8008828
:10249000FFF7D0FC002802D1552069460871684634
:1024A0000079002829D1388AF989891C814202DA09
:1024B0006749884201DB00210CE0B868F9894318BC
:1024C0009B1C388A401A821E92B203A90120FFF792
:1024D000E2FA01002800FFF7C9FC040017D1788A4E
:1024E000694649796A46128993009A188918891DA4
:1024F0004018788220004FB0F0BD6846007955281A
:10250000EDD107212800FEF7FBFB0400E7D02000F7
:10251000F1E70000FEAFFFFF05500000065000008D
:10252000FFAFFFFF7456001070B582B006000D00BB
:1025300003240222684602F09BFEAB782D1D290081
:10254000087800280CD0012804D002280AD00928D5
:102550000FD015E0684602883000FFF7E9FC040060
:10256000200076BD684602883000FFF7C7FD0400F2
:10257000F6E7684602883000FFF728FF0400EFE71F
:10258000204676BD38B505000C00022D01DB032086
:1025900032BD042322000021FEF734FB002803D1C2
:1025A00021002800FFF7C0FF32BDF0B585B006005E
:1025B000022801DB032048E0AD492C224243891860
:1025C000AC4A89180191AC498200101880000F189C
:1025D000012202A9019800687B8AC018FEF753FA0D
:1025E000798A08187882002568460580027A29468B
:1025F0003000FEF74DFB040027D16846F989818140
:1026000000E06D1C2800C0B269460989884212D2D8
:1026100001980068798A41183000FFF7B3FF040081
:1026200009D168460088401C69460880788A01996B
:1026300089888842E5D33000FEF7E2F96A466846A9
:1026400081893000FEF76FFB200005B0F0BD00006F
:10265000D1070000F8B507000D002C00241D022250
:10266000684602F005FEA878C606F60E07256846FD
:1026700000888249884208D1002006F04FFE0028D9
:1026800003D1032E01D1032514E01D2E12D168467B
:1026900000887B4988420DD1207806280AD1042180
:1026A0002000401C02F0D1FD641C210001200CF030
:1026B0007BF800252A0055213800FEF7E9FAF2BD23
:1026C00070B584B005001E000024022907D1002A3D
:1026D00005D13078092802D17078062801D004206D
:1026E00040E022460621684602F09AFC0622B61C0B
:1026F000310068460AF06EFB6248854216D111200F
:1027000006F08CFD00280BD10621684602F0F4FD8E
:10271000012823D1694601200CF080FA04001DE055
:10272000694601200CF07AFA040017E0401C85424B
:102730000AD1112006F072FD01280FD1694602204E
:102740000CF06CFA040009E0204606F0E7FD0128D1
:1027500004D1694610200CF061FA04002000401EEC
:102760008041C00F04B070BDF0B585B004000F000B
:10277000150007260422291F02A80AF02BFB022CB1
:1027800028D1002F02D128781C2801D0042057E03E
:10279000029900200CF0A4FA02212800401C02F04B
:1027A00054FD32466D1C290003A80AF013FB03A850
:1027B0000AF0C2F8040000200AF0A4F8002C01D1AD
:1027C00001263CE0052006F00BFF2F480CF098FB9B
:1027D000002634E0052C32D1032F01DB03202FE04B
:1027E0006A460821294802F000FA002806D16C4602
:1027F0002748008820802748008860802878002F9C
:1028000020D102281BD16878022818D1A878122874
:1028100015D102222900C91C684602F029FD6879F9
:1028200012280CD16C460222AD1D29002000801C0C
:1028300002F01EFD20886188884212D308263000ED
:1028400005B0F0BD1228FAD16C4602226D1C290099
:1028500078002018801E02F00BFD208861888842D5
:10286000ECD200266A460821084802F0E8F9E6E7BB
:10287000F83C00101C0800007456001013300000D3
:102880003530000001400000163000000A02000050
:1028900020F2030022F20300F0B58BB007000D0018
:1028A0000726112006F0BAFC002801D1032094E08D
:1028B000002F66D12878022844D16878062841D1B3
:1028C000A8780A283ED1E87804283BD104222900C0
:1028D000091D68460AF07EFA287A0A2832D1687AF9
:1028E00004282FD16C46042229000A312000001D43
:1028F0000AF070FAA87B0A2824D1E87B062821D1A7
:10290000062229001031200008300AF063FAA87D61
:102910000A2817D1E87D042814D10422290018318F
:1029200020000E300AF056FA287F0A280AD1687F64
:10293000062807D106221E352900123420000AF08D
:1029400049FA0026002E47D10024250003E0241D6B
:10295000A4B26D1CEDB2052D3EDA68462100421886
:1029600029001231C9B2012009F03AFD002801D135
:10297000012631E0022D01D0042DE8D1A41DA4B21E
:10298000E7E7072F01DB082027E02800FEF7D0FA51
:102990000500A8780A281FD1022F01D0042F01D1E9
:1029A000062400E00424E878A04206D122002D1D70
:1029B000290068460AF00EFA0026002E0CD1062FD8
:1029C0000ADA6846021911373900C9B2012009F044
:1029D00007FD002800D1012630000BB0F0BDF0B596
:1029E0008BB003000800150000273E000724032BCE
:1029F00002D0042B05D037E02900FFF74DFF04007B
:102A000032E0002830D128781C282DD12A79E978A5
:102A100068780002AB78C01880B20AF0A9F90028E3
:102A200005D06879182804DBA8793C2801DB082048
:102A300020E0112006F0F2FB012814D10222290027
:102A4000491C684602F014FC0522ED1C290068466A
:102A5000801C0AF0BFF93C006A460E21012009F0F3
:102A6000BFFC060000E00324002C02D1002E00D1A0
:102A7000012420000BB0F0BD10B5022812D10029AE
:102A800010D110780A280DD1507820280AD10024BE
:102A9000921C0321012009F0A3FC002800D101248D
:102AA000200010BD042010BDF1B58AB01D00002625
:102AB00034000727112006F0B1FB002801D10320C4
:102AC00055E06846008D6149884204D06846008D13
:102AD000491C884213D12878062842D137000422A5
:102AE0006D1C2900684602F0C3FB6A466846018DEA
:102AF000891CC9B2012009F073FC040031E068466A
:102B0000008D491C884201D1202213E06846008DC7
:102B1000091F884204D06846008D491C884201D1B3
:102B2000042207E06846008D0931884201D1102255
:102B300000E0062228780A2813D16878904210D144
:102B40003700AD1C290068460AF044F96846008D3C
:102B5000B249884205D16A461721012009F040FC9C
:102B60000400002F02D1002C00D1012738000BB047
:102B7000F0BD02000020002903D0491E052906D916
:102B8000704711781C2900D1082080B27047117855
:102B9000012909D153780E2B06DA9278152A03D130
:102BA000D800C018801CF0E70029EED10120ECE726
:102BB00030B583B01400002901D1022801D00720CC
:102BC0003EBD022069460880002505E06946098867
:102BD0000818694608806D1C6078EDB2854209D2FC
:102BE0002900684600882018FFF7C3FF0028EDD1B0
:102BF00007203EBD68460088B349884201D30720BC
:102C00003EBD220068460188B04802F0B0F80128B5
:102C100001D007203EBD6A460221B320000102F028
:102C2000A6F8012801D007203EBD0221684602F027
:102C3000C9FA019001AA0421A54802F098F80128D8
:102C400001D007203EBD00203EBD0000094100002C
:102C500010B582B004000222684602F009FB03228C
:102C600055212000FEF714F816BD70B582B006009D
:102C70000D002C00241D0222684602F0F9FAA87803
:102C80000007000FE97807226B461B888025ED01BD
:102C90005B1B10D05B1E022B12D9ED3B2CD0153BD9
:102CA00017D05B1E072B19D90D3B17D0FF25F03528
:102CB0005B1B1CD024E02200FFF756FD02001FE042
:102CC00023000A00010068460088FFF7F9FC0200B3
:102CD00016E02200FFF7D0FE020011E023000A00F8
:102CE000010068460088FFF7DFFE020008E02200CE
:102CF000FFF775FE020003E02200FFF759FF020014
:102D000055213000FDF7C4FF76BDFEB504000E006E
:102D1000022C01DB0320FEBD0222684602F0A8FA65
:102D20000423320000212000FDF76CFF050073D161
:102D30000422310002A80AF04DF83000001D0AF00C
:102D4000C1FA07009548A1000919890040180190AF
:102D50004078552806D1202255212000FDF798FF04
:102D6000050043E0320001212000FDF7C9FC0028E6
:102D700012D1012006F0D2FA012806D11F225521D6
:102D80002000FDF785FF050030E00F2255212000CF
:102D9000FDF77EFF050029E068460088A5498842C6
:102DA00005DA31002000FFF753FF05001EE06846FA
:102DB0000088A1494118A14A914205D23100200062
:102DC000FFF748FC050011E0BA494018A321C900EB
:102DD000884205D231002000FFF747FF050005E0DB
:102DE000042255212000FDF753FF050068460188A5
:102DF000B0788222D201801880B20CF010FA8020C4
:102E00000002874201D10420FEBD0198408A3F1D87
:102E1000C019019948822800FEBD00001141000040
:102E2000F0B585B00600022801DB03204AE0A24984
:102E30002C2242438918A14A8918019157498200DE
:102E4000101880000F18012202A9019800687B8ADF
:102E5000C018FDF718FE798A0818788200256846A0
:102E60000580027A29463000FDF712FF040013D1D5
:102E70006846F989818100E06D1C2800C0B269466E
:102E80000989884214D201980068798A4118300073
:102E9000FFF73BFF040001D0200013E068460088E4
:102EA000401C69460880788A019989888842E3D362
:102EB0003000FDF7A5FD6A46684681893000FDF7C0
:102EC00032FF200005B0F0BD01040000380B000007
:102ED000340B0000F0B585B00600022801DB0320AA
:102EE0005AE075492C2242438918744A8918009186
:102EF0002A498200101880000F18012202A90098A8
:102F000000687B8AC018FDF7BEFD798A08187882B0
:102F1000002568468580027A29463000FDF7B8FE14
:102F2000040020D16846F989818100E06D1C2800E9
:102F3000C0B269460989884224D200980068798A1B
:102F400041183000FFF7E1FE04000CD1788A0099A7
:102F50008988884216D20099096809183000FEF75E
:102F6000F3FC040001D0200016E0788A401C78822F
:102F700069468988491C6A4691800099898880B28F
:102F80008842D3D33000FDF73BFD01AA6846818912
:102F90003000FDF7C8FE200005B0F0BD74560010EB
:102FA000F8B50C00032502220100684602F060F922
:102FB000684600888D49401A012802D98C49401A78
:102FC00036D1F1273F0268460088B84206D000207B
:102FD00006F0A4F9002801D10F20F2BD207869463F
:102FE0000988824A914204D1082809D10226A41CEA
:102FF00009E0B94202D1082802D104E0062801D034
:103000002846F2BD10262C4807F05CFA002801D1B2
:103010001620F2BD69460988B94206D0641C220018
:103020003100C9B2012009F0DBF9002800D00025E9
:103030002800F2BD3421000000D0FFFF0F03000084
:10304000F8B507000C000222684602F011F92000D2
:10305000001D072500221100A3787F2B02D0802BB2
:103060000FD010E003781C00122C01D0002B0AD1E5
:10307000BE4E1500122C06D141780902807809183D
:1030800001E016001500002D07D189B201200CF0D7
:10309000AEF9300000B20CF06EFA2A0000213800C0
:1030A000FDF7F6FD002804D1002255213800FDF778
:1030B000EFFDF2BD00C0FFFFF83C00101C0800004F
:1030C000F3B581B007240222684602F0D1F80298D5
:1030D000001D00252F002E00029989787F2902D03B
:1030E00080291FD01FE0017802291CD141780229D4
:1030F00019D18178122916D14179122913D1C178B9
:10310000090202798E18B6B20A2E0CD18179090211
:10311000C0790E18B6B2FA204000864203D2934F0F
:103120002C0000E02C00002C08D128460EF026FAD6
:10313000AD498E804D800F800EF020FA2200294686
:1031400068460079FDF7A4FD002805D12A465521DF
:1031500068460079FDF79CFDFEBDF8B506000D0040
:1031600007240222684602F083F82F003F1DBA4868
:10317000B1008919890040184078002801D1202425
:1031800026E0012006F0CAF8012801D11F241FE023
:10319000002006F0C3F8012819D13878002817D18B
:1031A000A878032802D0042811D011E00121C148D9
:1031B0000BF056FD6846018843200CF030F8BE48FD
:1031C0000BF09EFE0D2006F047F8002400E00324DB
:1031D000220000213000FDF75BFD002804D1002211
:1031E00055213000FDF754FDF2BD00000240000003
:1031F000FEB0000002000020002908D0491E01296D
:103200000BD9891E032915D9091F19D070471178C8
:10321000162900D1022080B2704711780129FAD115
:1032200051780E29F7DA9278062AF4D188004018EE
:10323000801CF0E711780A29EDD15078801CEAE76C
:1032400011781629E7D10220E5E770B582B00400B5
:103250000D000222684602F00BF82900091D07261E
:1032600000221000AB78DB1E022B02D97C3B02D07F
:1032700011E003260FE06B461B88B44DAB420AD128
:103280000B78022B07D14B780A2B04D11600891C2E
:1032900008000BF06AFD002E02D1002800D10326A1
:1032A000320000212000FDF7F3FC002804D10022A9
:1032B00055212000FDF7ECFC76BDF0B585B0060089
:1032C000002408785D2845D1A14D2B000A00521C2E
:1032D000491C2046FDF7CFFD280007F0F3F8012830
:1032E0002DD101AF6878387028787870032201A951
:1032F0002046FDF7C8FB694608803A882900891CEA
:10330000684600882818C01C09F092FD2C70012026
:1033100068700920A870224601A92800C01CFDF78A
:10332000B2FB694608806846008839884318DB1C70
:103330009BB22A0055213000FDF764FC14E002A87E
:10334000162101704470022302AA55213000FDF7B6
:1033500059FC09E002A8072101704470022302AA67
:1033600055213000FDF74EFC05B0F0BD5A5A000063
:10337000F0B585B0040000262078022830D1A0786E
:1033800009282DD1012269462000C01CFDF77BFBD6
:103390006946888168468789E51902222900C91C87
:1033A00002A801F065FF04222900C91C01A809F048
:1033B00011FD68460089AE49884200D05526644B0D
:1033C0002200D21C6846008838182118091D3000D8
:1033D000FDF7F2FCED1D290001A8FFF7E1FD00E07B
:1033E000072005B0F0BD0000E44D001030B583B0FB
:1033F00004000725207802282BD16078022828D1E4
:10340000A078092825D19B4900200BF069FC0122F6
:1034100069462000C01CFDF736FB694688804C4D8C
:103420002B002200D21C6846808809884018211889
:10343000091D0020FDF7C0FC280007F043F8012813
:1034400006D10025B7480BF05BFD07F029FA00E034
:10345000162528003EBD00007456001030B583B01C
:10346000040007202178022922D1617802291FD186
:10347000A17809291CD1012269462000C01CFDF752
:1034800002FB69468880A84D2B002200D21C6846AA
:103490008088098840182118091D5520FDF7EBFC8C
:1034A000280007F00FF8012801D100203EBD0120BF
:1034B0003EBD0000111100001330000030B585B092
:1034C00004000878002833D121482C21614340189A
:1034D0009649405C022807D10B2005F082FE0120AE
:1034E00093494863886308E0012806D10A2005F063
:1034F00078FE01208E49486288620C2005F071FE3A
:103500006D4600202870012068701C20A8702900DA
:10351000C91CF72009F048FA0221ED1C280001F02F
:1035200094FE0A236A4655212000FDF76BFB0BE051
:10353000072255212000FDF7ABFB002804D1002213
:1035400055212000FDF7A4FB05B030BD363000004A
:10355000F83C0010F1B58CB00D000724002005F0F8
:103560005DFE002801D10F243CE0287857280CD1BB
:1035700068781A2809DA04AF38706A78AD1C290017
:103580007F1C380009F026FC0024002C2AD1694851
:103590000CA909788A005118890045186A4604A9BF
:1035A000287907F039F8002800D116240826287950
:1035B000022804D0002801D1102600E0162404AA15
:1035C000310007F0F8F85C48067004AF32003900AB
:1035D000891C401C09F0FEFB3200BF1C390004A806
:1035E00009F026FC504D0020002C35D12870012018
:1035F00068700220A8700420E87009272F71082441
:10360000200068712800801D07F0BCF8AF7320000F
:10361000E87329001031022006F008FF2F766C763F
:103620002246694628001A3009F0D4FB28002230CF
:10363000572101704670F6B2320004A928002430E8
:1036400009F0DCFB243633009BB22A0055210CA87C
:103650000078FDF7D7FA08E02C70687002232A0082
:1036600055210CA80078FDF7CDFA0DB0F0BD000093
:1036700002400000F1000400F8B504000E00072528
:10368000002005F0CBFD002848D03078092846D12D
:10369000002528002749A200121992008C182179D0
:1036A000002905D1204807F0B5F8002803D00820EC
:1036B0007278152A01DB2846F2BD1B4FB61C31007B
:1036C000381809F087FB3900207906F0F9FF002847
:1036D00001D1162523E02079002803D10D2005F023
:1036E00063FD1CE0022817D1694603200FF0D4F8CF
:1036F0000F4C00980101081A8000E0630E2005F0CD
:1037000053FDE06B801C6060A06001206063A063DB
:103710000B2005F066FD02E0032500E003252800EC
:10372000F2BD000026300000F83C00101708000031
:10373000E4570010745600100459001038B5040006
:103740000800091D0725807803280ED0042810D012
:10375000052813D0072815D0092818D00B281ED00B
:103760000C2820D0FE2823D030E02000FFF7A5FD54
:1037700032BD0800FFF7FCFD050027E02000FFF741
:103780009DFE32BD0800FFF731FE05001EE0080077
:10379000FFF764FE050019D107F0AFF816E020002E
:1037A000FFF7D8FE32BD2000FFF766FF05000DE0F1
:1037B000087809280AD14878082807D1891C0B0005
:1037C0000822002101200FF05EFB00252A000021C5
:1037D0002000FDF75DFA002804D1002255212000C9
:1037E000FDF756FA32BDF0B587B005000E00361D64
:1037F000072488787F2878D130781C2875D1052057
:1038000005F08CFD012809D15C48A90049198900FF
:103810004018C078002801D1022466E06946F720EC
:1038200009F0C2F8684609F01FFA049068460021C2
:103830008180817109F018FA039002213000401C48
:1038400001F003FD2246761C3100684609F0C2FAF9
:10385000684609F009FA07000020C043874273D088
:10386000182005F08BFE012827D0032005F056FD17
:10387000012822D0132005F0D1FC01281DD005AA73
:1038800008213F4801F0B1F9002806D105AE3D48B6
:10389000008830803C48008870803848A900491969
:1038A00089004018C078062829D10498C01B0FF061
:1038B000ABFB6946898A884246DB344900200BF01D
:1038C0000FFA684609F038F801280ED130480BF09D
:1038D00017FB2A48A900491989004018C078002818
:1038E00002D1052005F0B8FC00242A482C216943A8
:1038F00040182949405C03282AD102203CE00028D6
:1039000024D10498C01B029005AE0FF07DFB3188D6
:10391000884219DB02980FF077FB718881420CDA3C
:1039200008240F2005F0FAFC0028DED1062005F05F
:1039300093FC0F2005F090FCD7E70398874203D350
:10394000C84940188742B8D30824CEE70324CCE7FF
:10395000002C05D1002211462800FDF799F904E05A
:10396000032200212800FDF793F9002804D100224A
:1039700055212800FDF78CF907B0F0BD74560010F2
:103980000A02000020F2030022F20300400022009D
:103990003C300000F83C001013080000F1B5B0B056
:1039A0000C000720694608700020487004900390BE
:1039B0000881207802282BD16078052828D1A078AA
:1039C000112825D1E078002822D1207911281FD193
:1039D00060794870A07906281AD104222100C91DF7
:1039E00003A801F045FCE07A062811D10422210049
:1039F0000C3104A801F03CFC207C122808D10222E2
:103A00001134210002A801F033FC0020694608703F
:103A100068460078002800D0E3E068460089800806
:103A200069464880684640888F49884203DB082001
:103A300069460870D5E068460089800603D00320F7
:103A400069460870CDE000240AE029181C390429D1
:103A500001D200213154401C01998842F5D3641CE5
:103A6000E4B22000022860DA002C05D1039D06AEE6
:103A70002F461021019105E0049D7C4E2F4669469A
:103A8000098901918021C9028D424ED201982818DE
:103A9000491C884210D300220199300001F0B0FA8D
:103AA0008020C002421B3900300009F093F98020C9
:103AB000711BC202885436E0FC2189028D4214D267
:103AC000491C884211D300220199300001F098FA74
:103AD000FC208002421B3900300009F07BF9802075
:103AE000711BFC22920288541DE0FF2189028D4245
:103AF00014D2491C884211D300220199300001F0F0
:103B00007FFAFF208002421B3900300009F062F981
:103B10008020711BFF229202885404E0019A390030
:103B2000300009F057F9002096E7022856D1082204
:103B300006A9083106A801F0F1FBA24D4022290098
:103B400018310EA809F05AF90126340007E01022B6
:103B50000EA9000109180EA801F0E0FB641CE4B2F4
:103B600020000428F3DB34000AE069464A88114645
:103B70004843291818312800183001F0CFFB641C85
:103B8000E4B220000428F0DB082206A9280009F08E
:103B900035F910220EA92800083009F02FF92A0063
:103BA00068464188183189B2407806F061FE05A95F
:103BB000012803D168780870287848700888FA22AC
:103BC000D200904206DA02462900891C280009F03A
:103BD0002FF906E008206946087002E007206946D0
:103BE000087068460278002130A80078FDF750F888
:103BF000002834D16846007800282AD1012200210B
:103C000030A80078FDF744F8002828D127A8022121
:103C100001700121417009218170002205A9C01C99
:103C2000FCF731FF6946888068468388DB1C9BB2BD
:103C300027AA002130A80078FCF7E4FF00280ED165
:103C40006846838A5F4A552130A80078FCF7DAFF7E
:103C500005E00022114630A80078FDF719F831B0D0
:103C6000F0BD000080510100D1070000103D0010A0
:103C700010B504000320C91F022912D9C91E04D19E
:103C800011002000FFF78AFE10BD0722002120004E
:103C9000FCF7FEFF002804D1002255212000FCF78C
:103CA000F7FF10BD38B504000D000222684601F090
:103CB000DFFA032069460988F0221202891A17D018
:103CC000491E02D0491E13D006E02A00121DA97811
:103CD0002000FFF7CDFF32BD072200212000FCF7B6
:103CE000D7FF002804D1002255212000FCF7D0FF87
:103CF00032BD30B583B004000D00022201A801F0EE
:103D0000B7FA2900091D0722684680887B4B984234
:103D10004BD1A8787F2848D10878042845D1487825
:103D2000202842D127482C236343C018B94BC05CDC
:103D300000283AD10422891C684601F0AEFA042119
:103D4000684601F082FA6D46A878C00702D50720C0
:103D500005F0B3FAA878800702D5082005F0ADFA7F
:103D6000A878400702D5092005F0A7FAA87800072F
:103D700002D50A2005F0A1FAA878C00602D50B20CA
:103D800005F09BFAA878800602D50C2005F095FA7C
:103D9000A878400602D50D2005F08FFAE8780006D5
:103DA00002D502200FF088FC002200212000FCF741
:103DB0006FFF002804D1002255212000FCF768FF86
:103DC0003EBD0000F83C0010F8B50F0000252E00A5
:103DD000B84C2A461C21200001F022F97F1D012247
:103DE000210014313800FCF74EFE3F18387A20725B
:103DF000387868284CD1F879682849D1A18A7A188E
:103E0000921E5078162843D1280004E03B5CF61837
:103E1000F6B2401CC0B28B1E9842F7DB1078864287
:103E200036D10A2005E039180A78333A0A70401C66
:103E3000C0B2797A0A318842F5DB207A112802D0A3
:103E4000142817D024E0042239000A312000001D74
:103E500008F0C0FF38000E30E060787A001F208242
:103E600060689549884216D09449884213D0944896
:103E70002083F1BD042239000A312000001D08F022
:103E8000A9FF38001630E060787A0C382082E7E726
:103E90008C482083F1BD217A112902D014291CD02D
:103EA00029E0E168854A90420BD101200AF092FE98
:103EB00001280AD10621E06801F0C7F906206082D6
:103EC00003E008000FF05AFD6082608A002801D0EC
:103ED0002583F1BD7B482083F1BDE0680FF0E2FE51
:103EE0007849002801D12183F1BD884201DB20837C
:103EF000F1BD2583F1BD73482083F1BD142000007E
:103F0000F8B506000D00AD1D002318004979812980
:103F100001D16D1C02E0822900D1AD1C654C217AD3
:103F2000112902D0142910D01EE0218B002906D0BF
:103F3000D1212972218BA9720121618216E0912180
:103F40002972618A091D618210E0218B002906D047
:103F5000D4212972218BA9720121618206E094216A
:103F600029721900618201E019006182618A697217
:103F70000A2705E0E9190A7833320A707F1CFFB27C
:103F8000628A11000A318F42F4DB04E0EF5CC01951
:103F9000C0B25B1CDBB28B42F8DBA918887216201A
:103FA000618A6918C872608A0C30E082002211466A
:103FB0003000FCF76DFE00282AD1012200213000DC
:103FC000FCF766FE002823D1092200213000FCF70F
:103FD0005FFE00281CD1E28A7F2A05DAD2B20021D6
:103FE0003000FCF755FE0BE0002221001631684638
:103FF000FCF749FD03006A4600213000FCF702FE91
:10400000002805D1E38A2A0055213000FCF7FAFD8B
:10401000F2BD00001708000030B583B00400491D50
:104020000D00012200A9891C2800FCF72CFD29188D
:1040300001D103203EBD9F4D2A006846408806F00E
:104040009DFD69460880002211462000FCF720FEF5
:1040500000282DD1012200212000FCF719FE0028A4
:1040600026D1092200212000FCF712FE00281FD1D2
:10407000684600887F2807DA68460288D2B20021A5
:104080002000FCF705FE0AE00022694601A8FCF7C3
:10409000FAFC030001AA00212000FCF7B3FD002870
:1040A00006D1684603882A0055212000FCF7AAFDA6
:1040B0003EBD000020590010DBDFDF0401040004D6
:1040C0000280000001800000FEB504000E00022CFA
:1040D00001DB0320FEBD0222684601F0C9F804227C
:1040E000310002A808F076FE0423320000212000EF
:1040F000FCF788FD050000D0DAE03000001D09F073
:10410000E1F807009648A1000919890040180190BC
:104110004078552808D1202255212000FCF7B8FD11
:10412000050000D18EE0FEBD320002212000FCF728
:10413000E7FA002814D1012005F0F0F8012807D192
:104140001F2255212000FCF7A3FD05007AD0FEBDFB
:104150000F2255212000FCF79BFD050072D0FEBD0B
:1041600068460088B149884209D131002000FFF734
:104170002BFE31002000FFF7C3FE050068E0024679
:10418000AB4BD318AB4DAB4207D2884205D03100C0
:104190002000FFF7AEFD05005AE0A7495118A74BD4
:1041A000994205D231002000FFF74FF805004FE09B
:1041B0008021C901884205D131002000FFF713FB9F
:1041C000050045E08621C901884205D13100200063
:1041D000FEF7C3FF05003BE09949884205D1310055
:1041E0002000FEF72DFF050032E0491C884205D172
:1041F00031002000FEF764FF050029E0AF495118A7
:10420000032905D231002000FFF74CFD05001FE017
:10421000F1210902884205D131002000FFF78EFA12
:10422000050015E0A649884205D131002000FFF7BE
:10423000F3FE05000CE0062255212000FCF728FDC6
:10424000050035D1002255212000FCF721FD050095
:1042500068460088754988421DD0D73988421AD0EF
:10426000F8210902884216D0B849884213D0B278A2
:10427000F1210902884206D11000FE280BD00B283C
:1042800009D00C2807D0684601888420C001101886
:1042900080B20AF0C4FF80200002874201D10420CE
:1042A000FEBD0198408A3F1DC0190199488228002F
:1042B000FEBD0000F83C0010F0B585B006000228F5
:1042C00001DB03204AE0A2492C2242438918A14A7B
:1042D0008918019122498200101880000F180122CC
:1042E00002A9019800687B8AC018FCF7CCFB798A88
:1042F00008187882002568460580027A2946300031
:10430000FCF7C6FC040013D16846F989818100E0FE
:104310006D1C2800C0B269460989884214D20198F0
:104320000068798A41183000FFF7CEFE040001D002
:10433000200013E068460088401C69460880788A9F
:10434000019989888842E3D33000FCF759FB6A461B
:10435000684681893000FCF7E6FC200005B0F0BD1E
:1043600074560010F0B585B00600022801DB03206A
:104370005AE077492C2242438918764A89180091DD
:1043800095498200101880000F18012202A9009898
:1043900000687B8AC018FCF776FB798A0818788257
:1043A000002568468580027A29463000FCF770FCBB
:1043B000040020D16846F989818100E06D1C280045
:1043C000C0B269460989884224D200980068798A77
:1043D00041183000FFF778FE04000CD1788A00996C
:1043E0008988884216D20099096809183000FDF7BB
:1043F000ABFA040001D0200016E0788A401C7882D5
:1044000069468988491C6A4691800099898880B2EA
:104410008842D3D33000FCF7F3FA01AA68468189B9
:104420003000FCF780FC200005B0F0BDEB20000060
:1044300000E0FFFF0705000000D0FFFF0F030000B2
:104440000448000070B505000C002E00022E33DA7F
:1044500003233F482C21714340183E494258002114
:104460002800FCF7CFFB5C48B10089198900461889
:104470000320010071826178012904D010D303293F
:104480000BD006D30CE0E41C21002800FEF73DFC15
:1044900006E02800FEF7C4FC02E02800FEF71AFD43
:1044A000022802D10220307070BD032802D10820FA
:1044B000307070BD0120307070BD00000010FFFF33
:1044C000EF40000070B505000C002E00022E3BDA14
:1044D00003231F482C21714340181E4942580021D4
:1044E0002800FCF78FFB3C48B10089198900461869
:1044F0000320010071826178012906D018D30329B5
:104500000DD008D3042910D012E0E41C21002800AB
:10451000FDF71AFA0CE02800FDF76CFA08E0E41C3D
:1045200021002800FEF72EF802E02800FEF73DF8F3
:10453000022802D10220307070BD032802D1082069
:10454000307070BD0120307070BD00000548000063
:10455000F83C00101C08000070B505000C002E008F
:10456000022E37DA0323B3482C2171434018B24995
:10457000425800212800FCF745FB1748B100891973
:10458000890046180320010071826178012904D056
:1045900014D303290DD006D310E0E41C2100280019
:1045A000FFF792FD0AE0E41C21002800FFF784FEDB
:1045B00004E0E41C21002800FFF7D4FE022802D109
:1045C0000220307070BD032802D10820307070BD09
:1045D0000120307070BD00007456001070B50400EA
:1045E0000425207901280BD109252000093008F085
:1045F00069FE8021090288421CD18020000270BD22
:10460000022827D12000093008F05CFE6E03B0427A
:10461000F3D005000935ADB22800201808F052FE8D
:10462000B042EAD02D18ADB22800201808F04AFE9A
:10463000B042E2D02D18ADB2605D002810D06019F4
:10464000417800290FD10078810008182D186D1CC1
:10465000ADB212E0092810D10625A0790028EED1CC
:104660006D1CADB209E00129C7D181798900891D8E
:10467000007841436D186D1CADB2280070BD70B557
:1046800004006078012806D02BD303280BD005D373
:10469000042814D025E00725280070BDE0788500A7
:1046A0002D1DADB2F8E7E41C2000FFF797FF802135
:1046B0000902884215D00500ED1CADB2ECE70425D7
:1046C000002602E02D18ADB2761CE078F6B28642E4
:1046D000E2D228002018FFF781FF802109028842DA
:1046E000F0D18020000270BD80B5001D08F0EAFD09
:1046F00080210902884201D1080002BD001D80B25C
:1047000002BD70B5040003256078012804D00AD3E7
:1047100003281CD009D306E0E41C2000FFF7E4FFC7
:104720000500ED1CADB2280070BD04250026E07820
:10473000F6B28642F7D228002018FFF7D5FF802175
:104740000902884216D02D18ADB2761CEFE7042579
:10475000002603E02D186D1DADB2761CE078F6B290
:104760008642E0D228002018FFF7BEFF8021090210
:104770008842EFD1084670BD30B583B001000020FB
:10478000B04A8B005B189B00D218D278012A16D051
:1047900028482C2251434018274945182868017899
:1047A000891E07D0491E33D0891E33D0491E0129E6
:1047B00039D935E02721415C002902D1282080B277
:1047C0003EBD012909D1012269462830FCF75BF979
:1047D0006946098840182830F1E7022920D10122D2
:1047E00069462830FCF74FF90400012201A9286826
:1047F0006B461B88E318C0182830FCF744F969465B
:104800000988081869468988401828302018D6E792
:104810000220D4E7FFF733FF802109028842CED17E
:10482000802000023EBDFFF76CFF80210902884214
:10483000F6D0C4E7F83C00101C080000022800DB9A
:10484000704780B500227721FCF722FA01BD38B508
:104850000500022819DA7B4C810008188000201816
:10486000407800280CD0012277212800FCF710FAAC
:104870000A232834220077212800FCF7C3F931BD30
:10488000002277212800FCF703FA31BD10B504009F
:10489000FFF7D4FF2000FFF7DAFF10BD70B5050069
:1048A00002284FDA67498200121892008C18E178CA
:1048B000012947D080492C22504308187F494618C7
:1048C00031680878022808D003280BD005280DD0BD
:1048D00006280FD0072811D014E0A2682800FCF7A2
:1048E00047FE11E02800FCF7CBFF0DE02800FFF7A2
:1048F000E9FD09E02800FFF7A5FD05E02800FFF726
:104900002BFE01E0082020702078000715D501203B
:1049100020700020A081E081EE2201462800FCF7F3
:10492000B7F93068827800212800FCF7B1F901223C
:1049300055212800FCF7ACF970BDA06801788022F1
:104940000A43027070BD38B505002C00022C1DDA38
:104950003C48A1000919890040180121017000217B
:104960008181C181EE222800FCF792F952482C2166
:104970004C43001951494058827800212800FCF727
:1049800087F9012255212800FCF782F931BD010089
:10499000022900DB704738B5474A2C234B43D21815
:1049A000474BD55C0B35EDB2264B8C006118890066
:1049B0005C18424951580978A170E17800290FD05C
:1049C000042901D0032902D10C35EDB208E00629F3
:1049D00002D11B35EDB203E0052901D10F35EDB24F
:1049E0006178002901D00D35EDB2AD1CEDB235492D
:1049F0000A78824201D100224A700AF049F9A06087
:104A00003148401B208231BD012800D1704780B55C
:104A10000A2004F003FC012804D00B2004F0FEFB64
:104A200001280ED100200AE0002807D02749020102
:104A300089184A68002A01D08A684A60401C042804
:104A4000F2DB01BD7456001038B50400022831DADB
:104A500019492C22424389181D4A895C062929D10B
:104A60001C498200101880000D1800221421280013
:104A700000F0C6FA2000FFF7C7FF2000FCF74AFB52
:104A8000E8702000FBF7F2FE05002000FFF77FFF33
:104A9000002D03D12000FFF756FF02E02000FFF7B2
:104AA000FDFE2000FFF7F2FE2000FCF78FFC200047
:104AB000FCF7B9FC31BD0000F83C00101C080000F8
:104AC000150800000C5A0010C2070000E45700103F
:104AD0001808000074560010002300E00123002B8A
:104AE00008D180239B049842F8D20C230B801060DD
:104AF000012070470020704730B4002206E0831880
:104B00001C78FF2565401D70521C92B28A42F6DB6C
:104B100030BC7047FEB506007018A84A904204D316
:104B2000A7480AF0F8FB0020FEBD09B2009100255D
:104B300009E00198001901900098001B00B2009054
:104B400036196D1CADB2022D31D200BF19A0A900DB
:104B500049198900411808698642F2D2009A012A4F
:104B600025DBB218904201D3009C04E08868320033
:104B7000801ACA68841868460089012801D1914FBB
:104B800000E0914F002D01D10A2002E0012D0CD14F
:104B90000B20019B220092B21400CA68B21A496825
:104BA00051182200B8470128C3D00020FEBD0120C3
:104BB000FEBD000008000000B40700004C380000F3
:104BC000000000004C38000006000000B4070000A0
:104BD0004C3800004C3800009870000080B50FF091
:104BE0007FFF002010F006F801BD70B506000D0033
:104BF0001400FF206030854201DB002070BD3000D2
:104C00000FF04EFF00222900200000F0FDFA0128DD
:104C100001D1012070BD2200290030000FF048FFB3
:104C200029002000FFF768FF00222900200000F083
:104C3000EBFA012801D1012070BD002070BDF0B554
:104C4000DFB007000D001600FF206030854201DB59
:104C500000201EE001242246300000F0D5FA2A0090
:104C60003100684608F0B6F83200290038000FF02D
:104C700027FF012800D0002429006846FFF73CFFE9
:104C80006A46290038000FF023FF012800D00024D5
:104C900020005FB0F0BD30B5B74CA54404000D0056
:104CA000B648854201DB002008E00022684600F09B
:104CB000B7F96A4629002000FFF7C1FFB0498D44CB
:104CC00030BDF2B592B00700160001206946487069
:104CD00012A800888009C0B2019012A8008880063E
:104CE00003D00198401CC0B201900020087027E05A
:104CF000641CE4B2022C12DA0023320029003800CE
:104D0000FFF708FF002302AA29003800FFF702FF7F
:104D10002A0002A9300010F051F90028E8D1022C35
:104D200007D10021CA20400010F05CF9002069463C
:104D300048707F19761968460078401C69460870EB
:104D400068460078019988420DDA491E884207D1E9
:104D500012A800880199491E8901451AEDB200E0A8
:104D600040250024C5E76846407813B0F0BD80B503
:104D70000123FFF7CFFE02BDF0B5A1B005000F0083
:104D8000FF094E06760E00228021684600F048F9A1
:104D9000002408E080212800FFF7E9FF8035BB20D0
:104DA00078490860641CA4B2BC426A46F2DB310058
:104DB0002800FFF7DCFF21B0F0BD00009970000073
:104DC00019800000854A0100934A010030B583B084
:104DD0000D00140000210A006B469A8000916A467B
:104DE00001A9FFF779FE012807D123002A000099C5
:104DF0006846808810F008F83EBD00203EBD7CB5B6
:104E00000E001500002421006A469180009401A93B
:104E1000FFF762FE01280FD100E0641CE4B2022C0F
:104E20000ADA2B00320000996846808810F042F8B8
:104E30000128F2D1012076BD002076BD30B583B0C7
:104E40000D00140000210A006B469A8000916A460A
:104E500001A9FFF741FE012808D123002A0000998B
:104E600068468088C0B210F06DF83EBD00203EBD9F
:104E7000F1B5FFB0B5B00C00FF206030844276DAA7
:104E800000273E003D002A46B42149005AA800F000
:104E9000C7F82A46B4214900684600F0C1F85AAA6A
:104EA0002100B49880B20FF0FBFD2A4621005AA8D9
:104EB00000F0AAF9012800D101266A462100B49821
:104EC00080B20FF0F5FD380006E0694609180A784F
:104ED000FF2353400B70401CA042F6D32A4621000A
:104EE000684600F091F9012800D1012528003043DF
:104EF0003DD0002E17D1012D15D10F2004F054F90B
:104F0000102004F051F96A462100B49880B20FF0E5
:104F1000D7FD0F2004F065F9102004F062F91A485B
:104F20000AF0F9F923E0012E21D1002D1FD10F2025
:104F300004F03AF9102004F037F9380006E05AA9D5
:104F400009180A78FF2353400B70401CA042F6D387
:104F50005AAA2100B49880B20FF0BAFD0F2004F0D5
:104F600040F9102004F03DF908480AF0D4F97FB068
:104F700036B0F0BD000000002CF8FFFFD1070000A4
:104F8000D407000000000340408000004180000082
:104F90007CB50600080014001D0000210A006B46C5
:104FA0009A800091012E06D0022E0CD0112E11D025
:104FB000312E1DD021E02B00220001000A200FF02D
:104FC00068FD200076BD2B00220001000B200FF0B1
:104FD00060FDF6E76A4601A9FFF77EFD0128F0D1E2
:104FE0002B0022000099684680880FF00DFFE8E74B
:104FF0002A002100FFF765FEE3E7084676BD0906B3
:105000001206130A1A43130C1A4300BF094205D0B3
:1050100083070BD00270401C491EF9D17047000075
:105020001206130A1A43130C1A4300BF130030B4BC
:1050300014001500103902D310393CC0FCD24907C6
:1050400000D30CC000D504C0890002D30280801CAC
:10505000002900D5027030BC704700000022E5E74F
:1050600010B5040000F091F8002803D1002176204B
:105070000FF0B8FF21004908782008400100890896
:1050800040182107090F4018C0B210BD70B50400C8
:10509000642C03DB0021BD200FF0A4FF200064215D
:1050A00005F06AF90C00E4B20A252000290005F099
:1050B00063F906012000290005F05EF97018C0B2FE
:1050C00070BD70B54E4905F057F989B20D006424E2
:1050D0002800210005F050F9C0B2FFF7D7FF060203
:1050E0002800210005F048F90800C0B2FFF7CEFF04
:1050F000301880B270BD70B53E4905F040F90D0022
:105100003F4C2800210005F03AF980B2FFF7D9FFA3
:1051100006042800210005F032F9080080B2FFF7EC
:10512000D0FF301870BDF0B583B033A20CCA0FF0B9
:1051300064FF16001F002F4C0025300039002200AC
:105140002B000FF05AFFFFF7D6FF01002846009012
:1051500001913000390022002B000FF04EFF1000AB
:10516000FFF7C9FF0021009A019B8018594103B045
:10517000F0BD01000120002203E083001818400068
:10518000521CD2B28A42F8D370470107090F0A298C
:1051900001DB0020704700090A2801DB002070476E
:1051A0000120704710B402000023180004E01478B6
:1051B0000019C0B2521C5B1C9BB28B42F7D310BCCF
:1051C0007047000010B40F4A09E000BF62A30478E2
:1051D0005440E4B2A4001B59120A5A40401C0B0070
:1051E000591E9BB2002BF0D10020C043504010BC90
:1051F0007047000000E1F5050000C16FF286230052
:105200001027000055555555F0B583B006000F0026
:105210001400F5192D1F0422290001A807F0DAFD5A
:10522000391F89B23000FFF7CDFF00900198009937
:10523000884208D0012C04D104226946280007F0D6
:10524000C9FD0020FEBD0120FEBD70B4002209E0B2
:1052500083181C784D1EAD1A45192E781E702C70BF
:10526000521C92B20B005B089A42F1DB70BC704793
:1052700030B5C1B004001500684607F0ABFD002052
:105280006A4605E0491E091A515C2154401CC0B20F
:1052900029008842F6DB41B030BDF8B5002319E0A3
:1052A000CE5CC4182670552735006D083D40374048
:1052B0007E002E43267033253700BF082F4035402F
:1052C000AD003D4325702E0036092D013543257074
:1052D0005B1CDBB29342E3DB1100FFF7B6FFF1BDCD
:1052E000F0210140912905DA0007000F0A2801DAB0
:1052F000012070470020704770B505000C000026A3
:1053000000E0761CF6B2A64206D2A85DFFF7E8FFE1
:105310000128F6D0002070BD012070BD70B40023BC
:1053200006E0C4182578CE5C6E4026705B1C9BB2EC
:105330009342F6DB70BC704710B4002300E05B1CA6
:105340009BB2934204D2C45C8C42F8D0002000E0AF
:10535000012010BC70470000000000009630077765
:105360002C610EEEBA51099919C46D078FF46A7059
:1053700035A563E9A395649E3288DB0EA4B8DC7979
:105380001EE9D5E088D9D2972B4CB609BD7CB17EF9
:10539000072DB8E7911DBF906410B71DF220B06AC9
:1053A0004871B9F3DE41BE847DD4DA1AEBE4DD6DD9
:1053B00051B5D4F4C785D38356986C13C0A86B64D9
:1053C0007AF962FDECC9658A4F5C0114D96C0663F9
:1053D000633D0FFAF50D088DC8206E3B5E10694CD9
:1053E000E44160D5727167A2D1E4033C47D4044B19
:1053F000FD850DD26BB50AA5FAA8B5356C98B242F9
:10540000D6C9BBDB40F9BCACE36CD832755CDF4578
:10541000CF0DD6DC593DD1ABAC30D9263A00DE51A8
:105420008051D7C81661D0BFB5F4B42123C4B35698
:105430009995BACF0FA5BDB89EB802280888055F18
:10544000B2D90CC624E90BB1877C6F2F114C685878
:10545000AB1D61C13D2D66B69041DC760671DB0166
:10546000BC20D2982A10D5EF8985B1711FB5B60638
:10547000A5E4BF9F33D4B8E8A2C9077834F9000F78
:105480008EA8099618980EE1BB0D6A7F2D3D6D0818
:10549000976C6491015C63E6F4516B6B62616C1C08
:1054A000D83065854E0062F2ED95066C7BA5011B38
:1054B000C1F4088257C40FF5C6D9B06550E9B712D8
:1054C000EAB8BE8B7C88B9FCDF1DDD62492DDA1598
:1054D000F37CD38C654CD4FB5861B24DCE51B53AB8
:1054E0007400BCA3E230BBD441A5DF4AD795D83DB8
:1054F0006DC4D1A4FBF4D6D36AE96943FCD96E34F8
:10550000468867ADD0B860DA732D0444E51D0333D7
:105510005F4C0AAAC97C0DDD3C710550AA410227E7
:1055200010100BBE86200CC925B56857B3856F20B7
:1055300009D466B99FE461CE0EF9DE5E98C9D92917
:105540002298D0B0B4A8D7C7173DB359810DB42E57
:105550003B5CBDB7AD6CBAC02083B8EDB6B3BF9AA3
:105560000CE2B6039AD2B1743947D5EAAF77D29D2F
:105570001526DB048316DC73120B63E3843B64940F
:105580003E6A6D0DA85A6A7A0BCF0EE49DFF09930F
:1055900027AE000AB19E077D44930FF0D2A308877F
:1055A00068F2011EFEC206695D5762F7CB6765802F
:1055B00071366C19E7066B6E761BD4FEE02BD3892F
:1055C0005A7ADA10CC4ADD676FDFB9F9F9EFBE8E8F
:1055D00043BEB717D58EB060E8A3D6D67E93D1A1CF
:1055E000C4C2D83852F2DF4FF167BBD16757BCA6AF
:1055F000DD06B53F4B36B248DA2B0DD84C1B0AAF4F
:10560000F64A0336607A0441C3EF60DF55DF67A8CE
:10561000EF8E6E3179BE69468CB361CB1A8366BC5E
:10562000A0D26F2536E2685295770CCC03470BBBAE
:10563000B91602222F260555BE3BBAC5280BBDB2AE
:10564000925AB42B046AB35CA7FFD7C231CFD0B54E
:105650008B9ED92C1DAEDE5BB0C2649B26F263EC40
:105660009CA36A750A936D02A906099C3F360EEB4E
:105670008567077213570005824ABF95147AB8E20E
:10568000AE2BB17B381BB60C9B8ED2920DBED5E5EE
:10569000B7EFDC7C21DFDB0BD4D2D38642E2D4F13E
:1056A000F8B3DD686E83DA1FCD16BE815B26B9F6CE
:1056B000E177B06F7747B718E65A0888706A0FFF2E
:1056C000CA3B06665C0B0111FF9E658F69AE62F8EE
:1056D000D3FF6B6145CF6C1678E20AA0EED20DD7EE
:1056E0005483044EC2B30339612667A7F71660D00E
:1056F0004D476949DB776E3E4A6AD1AEDC5AD6D94E
:10570000660BDF40F03BD83753AEBCA9C59EBBDE6D
:105710007FCFB247E9FFB5301CF2BDBD8AC2BACA1D
:105720003093B353A6A3B4240536D0BA9306D7CD8D
:105730002957DE54BF67D9232E7A66B3B84A61C4AD
:10574000021B685D942B6F2A37BE0BB4A18E0CC36D
:105750001BDF055A8DEF022DF5B581B00E001C0040
:1057600068468588FA20C000854203DB00218F202F
:105770000FF038FC029880210906884203D30021EB
:1057800090200FF02FFC68468088002801D0002E62
:1057900005D1002194200FF025FC0020FEBD8020C3
:1057A0004001290004F0E8FD0500ADB2AE4201D28F
:1057B0003500ADB23000290004F0E1FD07003000F3
:1057C000290004F0DCFD002901D17F1C00E0BF1C92
:1057D000BFB20298290004F0D2FD80B2390004F073
:1057E000CBFD0E00B6B20298290004F0C8FD89B2C4
:1057F0007543681820603803A06030036A469288B9
:105800005143401860600120FEBD70B500241BE0CC
:1058100060000619B600B248851900220C21280044
:10582000FFF7F2FC01280ED1286800280BD00021D8
:10583000C943884207D02A000C21E820C000801903
:1058400080B2FFF7FCF9641C022CE1DB70BD38B5B7
:1058500000252C000EE0600000198000A0490A1805
:10586000156055600C21E823DB00181880B2FFF7A3
:10587000E6F9641C022CEEDB31BDFCB583B00024DC
:10588000984A90422ED1002932D1254622E09648EE
:1058900069004919C90046186F4604223100091DE4
:1058A0003800801C07F096FA02223100684607F0A3
:1058B00091FA042208363100BF1D380007F08AFA39
:1058C0000A2269460498001907F084FA0A34A4B23F
:1058D0006D1CEDB20F2D07D26846818920000A3079
:1058E0008142D4DA002024E0002C03D0200020E004
:1058F000102904D3002004990870012019E07A4887
:105900004A005118C90044180422210014391846CD
:10591000801C07F05FFA022221001839049807F072
:1059200059FA0422103C21000498801D07F052FA15
:105930000A2005B0F0BD80B508216C48FFF7ABF92F
:10594000FFF785FF01BD70B59CB00400022C41DA61
:10595000002501E06D1CEDB20F2D07D262496A00EF
:105960005219D2008918497B8142F3D10F2D31D2CF
:105970000022642103A8FFF753FB5948610009196D
:1059800089004258584869004919C9004518002A39
:1059900012D02E8A6B46521EA9683000FFF7DCFE3B
:1059A00003AA31006869019BC018D823DB02C01824
:1059B000FFF725FA00280DD04D4868214C43041903
:1059C0002A8A03A9200007F005FA64212000FFF7C6
:1059D000F9FB60661CB070BDF0B58DB0040007F037
:1059E000E5F90700BC4204D20221200000F082F851
:1059F00074E0A74272D20022082101A8FFF710FB31
:105A0000002417E0864213D2002028606860082135
:105A10002800FFF7D7FBA8602A000C21E820C0006F
:105A2000009BC01880B2FFF70AF92000FFF78BFF38
:105A3000641CE4B2022C48DA002001E0401CC0B231
:105A40000F2807D2284942001218D2008918497B32
:105A5000A142F3D10F28EBD0610009198900009110
:105A60001F49009A8D182E680021C94303911E49D1
:105A700042001018C00008184169D822D2028918C3
:105A80000491816805910696696807913900491C5F
:105A90000891099503A90A91008A04A9888304A89A
:105AA00000F07BFD0128C3D12868B042AAD2361A83
:105AB00068688642A8D2801B686068460079012128
:105AC000A140014368460171A1E7684600790028BA
:105AD00004D001AA0821CB48FFF7B1F80DB0F0BD02
